:0300000002049F58
:0C049F00787FE4F6D8FD75817E0204E64B
:1008F100000810040200081004020008100402009D
:0D090100081004020208041000081004028F
:1000030006390802100400110151000240000002E9
:0F001300460000014800013800014900013F008C
:10080C00D2801208CF12094FC2ACD2AC43A0017FE8
:10081C00B87E0B12090E1208A7120947AF490549F9
:10082C00EFD394054003E4F549E551B401031203F9
:06083C004B1203F680D60A
:100745008E108F1153877F759850538EBF538EFE31
:1007550053890F438920AE10AF11AB07AA06E4F900
:10076500F8FF7E1B7DB7FC12078DE47B20FAF9F8B4
:1007750012078DE47B0CFAF9F812078DEFF404F5F6
:080785008BF58DC2ABD28E2270
:10084200538EF7759A50538EFBAB07AA06E4F9F85C
:10085200FF7E1B7DB7FC12078DE47B20FAF9F812AC
:10086200078DE47B0CFAF9F812078DEFF404F59C7E
:04087200438E10227F
:1008CF007FB07E041207457FB07E0412084243A218
:1008DF001043B71843B81843B60143B501D2AFD28E
:0208EF00AC2239
:04094F0053803F2270
:0300230002059340
:07059300C0E0C0D075D008E4
:10059A00E4FFFE309849C298AF99E547454670187E
:1005AA00F540F5417E047842E4F608DEFC7E04BF9D
:1005BA00A02D7546007547010541E54170020540C9
:1005CA00142442F8A60FC3E5419404E540648094DC
:0F05DA0080400C75460075470075400075410064
:0505E900D0D0D0E0328B
:080947008F993099FDC299223D
:100927008F9BE59A70047F0180027F00EF20E1F240
:04093700539AFD22B0
:100876003080FD757BA08F7C757DAFE57B657C65E3
:100886007DF57EE4F57A747B257AF8E6FF12094752
:100896007F0A7E0012090E057AE57AC3940440E6C3
:0108A600222F
:0A05EE00E4F535753601FBFD7F01D1
:1005F800E4F537FEF537744A2537F8E4F60537E5AC
:1006080037B408F2754AFF8F4BE4F54C8D4D8B4E8D
:1006180085354F7E01744A2EF8E62550F5500EBEFA
:1006280006F3E4F537744A2537F8E6FF1209277F01
:0F0638001E7E0012090E0537E537C3940740E612
:010647002290
:1007D100E54745467032E54264A0702CE542654329
:1007E100654465457022E54324FB70057551018020
:1007F10003E4F551E4FF7E047842E4F608DEFCE50B
:0A08010051640160037F01227F00B3
:01080B0022CA
:10052B00E4F560F561F562F563F564F565F566F57F
:10053B006778687C00FD7BFF7A0879F1FE7F0512F6
:10054B0000F6E56B456AFF7D307C751206A6EF64FD
:10055B00016034E4F560F5617D607C09AF6C1206D7
:10056B00A6EF640160217D947C11AF691206A6EFA2
:10057B00640160130561E56170020560C39406E5D3
:07058B00606480948040D100
:010592002246
:10027500E4F56DF56EF56FF570F571F572F573F5DD
:100285007478757C00FD7BFF7A0879F6FE7F051290
:1002950000F6E5784577FF7D307C751206A6EF649C
:1002A50001700302034AE4F56DF56EE4F56FF57030
:1002B500E572457170071206A0BF010F227D607CB3
:1002C50009AF781206A6EF6401607A0570E57070D3
:1002D50002056FC39407E56F6480948040D2E57290
:1002E50045717005FE7F0180047E007F008E718F51
:1002F500727D947C11AF761206A6EF640160460507
:100305006EE56E7002056DC39406E56D648094809C
:100315004099E4F56FF570E572457170071206A016
:10032500BF010F227D607C09AF781206A6EF64013C
:1003350060130570E5707002056FC39407E56F647F
:0503450080948040D20D
:01034A002290
:1006F800E4F552F553F554F555F556F557F558F513
:1007080059755A01785B7C00FD7BFF7A0879FBFEFE
:100718007F051200F61208A7EFD3955A4012120867
:10072800A78F5A7D607C09AF5F1206A6BF01E6223B
:0D0738007D607C09AF5E1206A6BF01D922CC
:10034B00E4F510F511F512F513F514F515F516F591
:10035B001778187C00FD7BFF7A097900FE7F051268
:10036B0000F6781D7C007D007BFF7A0979057E0005
:10037B007F041200F6120648EF6401606DE4F5107D
:10038B00F511E4F512F513AE10AF117C007D0212DE
:10039B00011CD3E5139FEE6480F8E512648098503E
:1003AB002EE5159403E514648094804005E4F51460
:1003BB00F515741D2515F8E6FF7DD07C071206A6F2
:1003CB00EF640160250513E51370BC051280B805B9
:1003DB0015E515700205140511E51170020510C322
:0A03EB00940AE510648094804098A5
:0103F50022E5
:10064800E4F521F522F523F524F525F526F527F51A
:100658002878297C00FD7BFF7A097909FE7F05123D
:1006680000F6E52C452BFF7D307C751206A6BF01F0
:10067800037F0122E52D452AFF7D4C7C1D1206A62D
:10068800BF01037F01227D4C7C1DAF2A1206A6BF45
:0706980001037F01227F0036
:01069F002238
:0606A0007D607C09AF79CA
:0406A6008C2E8D2FDA
:1006AA00E4F530F531AD077535017536017B017F0B
:1006BA00011205F8E4F530F531C3E531952FE5303F
:1006CA00952E502412093B1207D1EF6401600912DA
:1006DA0008A7EFD3940040061205EE7F01220531E8
:0D06EA00E53170D5053080D11205EE7F009E
:0106F70022E0
:1003F600E4F510F511E5474546600302049EE54223
:1004060064A0600302049EE5426543654465456059
:100416000302049EE543B407005063900428F828BD
:10042600287302043D02044702045302045F0204D7
:100436006B02047C020481E4F535753601FBFD8010
:100446002E753501753601E4FB7D08802275350170
:10045600753601E4FB7D108016E4F5357536017BB3
:10046600017D04800AE4F5357536017B017D027F46
:10047600011205F880087551018003E4F551E4F591
:1004860010F51174422511F8E4F60511E511700214
:0804960005106404451070EB31
:01049E00223B
:1008A700E4FFC374059FFE7401A806088002C333E2
:1008B700D8FCFEE5A0F4543FFDEED39D40040FBFE6
:0708C70005E0C374059FFF6B
:0108CE002207
:0B093B000000007F0B7EBEDEFEDFFC34
:01094600228E
:04090E00AD07AC067F
:10091200E4FBFAC3EB9DEA9C500A12093B0BBB00B5
:04092200010A80EF57
:0109260022AE
:1004AB0002080CE493A3F8E493A34003F68001F253
:1004BB0008DFF48029E493A3F85407240CC8C33352
:1004CB00C4540F4420C8834004F456800146F6DF21
:1004DB00E4800B0102040810204080900003E47EAE
:1004EB00019360BCA3FF543F30E509541FFEE49316
:1004FB00A360010ECF54C025E060A840B8E493A3DD
:10050B00FAE493A3F8E493A3C8C582C8CAC583CA07
:10051B00F0A3C8C582C8CAC583CADFE9DEE780BEBF
:0100220000DD
:10002600E709F608DFFA8046E709F208DFFA803EBC
:1000360088828C83E709F0A3DFFA8032E309F608A9
:10004600DFFA8078E309F208DFFA807088828C8311
:10005600E309F0A3DFFA806489828A83E0A3F608C5
:10006600DFFA805889828A83E0A3F208DFFA804C9F
:1000760080D280FA80C680D4806980F28033801076
:1000860080A680EA809A80A880DA80E280CA8033DF
:1000960089828A83ECFAE493A3C8C582C8CCC58357
:1000A600CCF0A3C8C582C8CCC583CCDFE9DEE78027
:1000B6000D89828A83E493A3F608DFF9ECFAA9F0A6
:1000C600EDFB2289828A83ECFAE0A3C8C582C8CCFC
:1000D600C583CCF0A3C8C582C8CCC583CCDFEADE15
:1000E600E880DB89828A83E493A3F208DFF980CC77
:1000F60088F0EF60010E4E60C388F0ED2402B40470
:100106000050B9F582EB2402B4040050AF23234516
:06011600822390007673C5
:10011C00C2D5EC30E709B2D5E4C39DFDE49CFCEEFE
:10012C0030E715B2D5E4C39FFFE49EFE120152C323
:10013C00E49DFDE49CFC800312015230D507C3E41E
:06014C009FFFE49EFE226D
:10078D00C2D5E830E70FB2D5E4C39BFBE49AFAE497
:10079D0099F9E498F8EC30E717B2D51207C31201B6
:1007AD00E3E4C39BFBE49AFAE499F9E498F8800337
:1007BD001201E330D50DE4C39FFFE49EFEE49DFDE1
:0407CD00E49CFC228A
:10015200BC000BBE0029EF8DF084FFADF022E4CC91
:10016200F875F008EF2FFFEE33FEEC33FCEE9DEC5A
:10017200984005FCEE9DFE0FD5F0E9E4CEFD22EDA0
:10018200F8F5F0EE8420D21CFEADF075F008EF2FEA
:10019200FFED33FD4007985006D5F0F222C398FDDB
:0501A2000FD5F0EA2278
:1001A70075F008758200EF2FFFEE33FECD33CDCC0F
:1001B70033CCC58233C5829BED9AEC99E582984092
:1001C7000CF582EE9BFEED9AFDEC99FC0FD5F0D66F
:1001D700E4CEFBE4CDFAE4CCF9A88222B800C1B999
:1001E7000059BA002DEC8BF084CFCECDFCE5F0CBD7
:1001F700F97818EF2FFFEE33FEED33FDEC33FCEB10
:1002070033FB10D703994004EB99FB0FD8E5E4F9CA
:10021700FA227818EF2FFFEE33FEED33FDEC33FCB7
:10022700C933C910D7059BE99A4007EC9BFCE99AAB
:10023700F90FD8E0E4C9FAE4CCFB2275F010EF2FF0
:10024700FFEE33FEED33FDCC33CCC833C810D707F0
:100257009BEC9AE899400AED9BFDEC9AFCE899F82B
:0E0267000FD5F0DAE4CDFBE4CCFAE4C8F922BE
:00000001FF
